{
  "transactions": [
    {
      "hash": "0xffb0647a9c5ee3a62595c1ab463a811c570097ed4530155eddd7e70900c37782",
      "transactionType": "CALL",
      "contractName": null,
      "contractAddress": "0x779877a7b0d9e8603169ddbd7836e478b4624789",
      "function": "transferAndCall(address,uint256,bytes)",
      "arguments": [
        "0x9DdfaCa8183c41ad55329BdeeD9F6A8d53168B1B",
        "100000000000000000",
        "0x581fb96d213e2d536fb37a057501ba145cdfd6c7d9c50b938302cdc87e37eea5"
      ],
      "transaction": {
        "from": "0xbab69b1303fd3121285d7b9e1b8205680ec832a7",
        "to": "0x779877a7b0d9e8603169ddbd7836e478b4624789",
        "gas": "0x14cbb",
        "value": "0x0",
        "input": "0x4000aea00000000000000000000000009ddfaca8183c41ad55329bdeed9f6a8d53168b1b000000000000000000000000000000000000000000000000016345785d8a000000000000000000000000000000000000000000000000000000000000000000600000000000000000000000000000000000000000000000000000000000000020581fb96d213e2d536fb37a057501ba145cdfd6c7d9c50b938302cdc87e37eea5",
        "nonce": "0xe",
        "chainId": "0xaa36a7"
      },
      "additionalContracts": [],
      "isFixedGasLimit": false
    }
  ],
  "receipts": [
    {
      "status": "0x1",
      "cumulativeGasUsed": "0x59753a",
      "logs": [
        {
          "address": "0x779877a7b0d9e8603169ddbd7836e478b4624789",
          "topics": [
            "0xddf252ad1be2c89b69c2b068fc378daa952ba7f163c4a11628f55a4df523b3ef",
            "0x000000000000000000000000bab69b1303fd3121285d7b9e1b8205680ec832a7",
            "0x0000000000000000000000009ddfaca8183c41ad55329bdeed9f6a8d53168b1b"
          ],
          "data": "0x000000000000000000000000000000000000000000000000016345785d8a0000",
          "blockHash": "0x16467c7b832dd77f5cdb5dd9828d1a3a42119160fe8276bfdcfcbe4f7075e9b9",
          "blockNumber": "0x73827a",
          "transactionHash": "0xffb0647a9c5ee3a62595c1ab463a811c570097ed4530155eddd7e70900c37782",
          "transactionIndex": "0x2c",
          "logIndex": "0x4a",
          "removed": false
        },
        {
          "address": "0x779877a7b0d9e8603169ddbd7836e478b4624789",
          "topics": [
            "0xe19260aff97b920c7df27010903aeb9c8d2be5d310a2c67824cf3f15396e4c16",
            "0x000000000000000000000000bab69b1303fd3121285d7b9e1b8205680ec832a7",
            "0x0000000000000000000000009ddfaca8183c41ad55329bdeed9f6a8d53168b1b"
          ],
          "data": "0x000000000000000000000000000000000000000000000000016345785d8a000000000000000000000000000000000000000000000000000000000000000000400000000000000000000000000000000000000000000000000000000000000020581fb96d213e2d536fb37a057501ba145cdfd6c7d9c50b938302cdc87e37eea5",
          "blockHash": "0x16467c7b832dd77f5cdb5dd9828d1a3a42119160fe8276bfdcfcbe4f7075e9b9",
          "blockNumber": "0x73827a",
          "transactionHash": "0xffb0647a9c5ee3a62595c1ab463a811c570097ed4530155eddd7e70900c37782",
          "transactionIndex": "0x2c",
          "logIndex": "0x4b",
          "removed": false
        },
        {
          "address": "0x9ddfaca8183c41ad55329bdeed9f6a8d53168b1b",
          "topics": [
            "0x1ced9348ff549fceab2ac57cd3a9de38edaaab274b725ee82c23e8fc8c4eec7a",
            "0x581fb96d213e2d536fb37a057501ba145cdfd6c7d9c50b938302cdc87e37eea5"
          ],
          "data": "0x0000000000000000000000000000000000000000000000000000000000000000000000000000000000000000000000000000000000000000016345785d8a0000",
          "blockHash": "0x16467c7b832dd77f5cdb5dd9828d1a3a42119160fe8276bfdcfcbe4f7075e9b9",
          "blockNumber": "0x73827a",
          "transactionHash": "0xffb0647a9c5ee3a62595c1ab463a811c570097ed4530155eddd7e70900c37782",
          "transactionIndex": "0x2c",
          "logIndex": "0x4c",
          "removed": false
        }
      ],
      "logsBloom": "0x00000004000000000000000000001000000000000020000000000000020001000000000000000000000000000000000200000000000000000000000000000000000000000000000000000008000000000000000000000000000020000020000008800000000000000000000000000000010000000000000000000010000040000000000000000000000000010000800000000020000000000000000000000000000000000000000000000000010000000000000000000000000004000000000000000002000000000000000000000000000000000000000100000000000000000010000000000000800000000000000001000000000000000000000000000000",
      "type": "0x2",
      "transactionHash": "0xffb0647a9c5ee3a62595c1ab463a811c570097ed4530155eddd7e70900c37782",
      "transactionIndex": "0x2c",
      "blockHash": "0x16467c7b832dd77f5cdb5dd9828d1a3a42119160fe8276bfdcfcbe4f7075e9b9",
      "blockNumber": "0x73827a",
      "gasUsed": "0xf0e5",
      "effectiveGasPrice": "0xcdf0eb0e",
      "from": "0xbab69b1303fd3121285d7b9e1b8205680ec832a7",
      "to": "0x779877a7b0d9e8603169ddbd7836e478b4624789",
      "contractAddress": null
    }
  ],
  "libraries": [],
  "pending": [],
  "returns": {},
  "timestamp": 1737836053,
  "chain": 11155111,
  "commit": "c9122d8"
}